:100000000C9435000C945D000C945D000C945D0024
:100010000C945D000C945D000C945D000C945D00EC
:100020000C945D000C945D000C945D000C945D00DC
:100030000C945D000C945D000C945D000C945D00CC
:100040000C94E0000C945D000C945D000C945D0039
:100050000C945D000C945D000C945D000C945D00AC
:100060000C945D000C945D00600011241FBECFEF66
:10007000D8E0DEBFCDBF11E0A0E0B1E0E6E5F3E0FF
:1000800002C005900D92AE30B107D9F711E0AEE095
:10009000B1E001C01D92A232B107E1F710E0CAE65B
:1000A000D0E004C02297FE010E949E01C836D1070D
:1000B000C9F70E948F010C94A9010C9400000895C7
:1000C00060E071E08EE091E00C9467000895CF93BA
:1000D000DF93EC018CE091E0998388838A819B8196
:1000E0000E94A2011886DF91CF910895CF92DF92EE
:1000F000EF92FF92CF93DF93EB010E942A016B01F5
:100100007C014C815D816E817F8188819981AA818A
:10011000BB81480F591F6A1F7B1FC416D506E60610
:10012000F70690F08C819D81AE81BF8148175907F9
:100130006A077B07D8F48C819D81AE81BF81C81688
:10014000D906EA06FB0690F08C819D81AE81BF81C5
:10015000C816D906EA06FB0688F48C819D81AE811B
:10016000BF81481759076A077B0740F0E885F98582
:10017000CE010995CC82DD82EE82FF82DF91CF91A4
:10018000FF90EF90DF90CF9008950F931F93CF9340
:10019000DF938C01FC01C081D18107C0BE01C80181
:1001A0000E9476000A84DB85C02D2097B9F7DF9185
:1001B000CF911F910F91089587E191E00C94C500B4
:1001C0001F920F920FB60F9211242F933F938F938C
:1001D0009F93AF93BF938091190190911A01A091C1
:1001E0001B01B0911C0130912101232F2A5F2D3773
:1001F00020F40296A11DB11D05C0232F2757039699
:10020000A11DB11D209321018093190190931A0122
:10021000A0931B01B0931C0180911D0190911E01C0
:10022000A0911F01B09120010196A11DB11D8093E5
:100230001D0190931E01A0931F01B0932001BF9157
:10024000AF919F918F913F912F910F900FBE0F9083
:100250001F9018950F931F939FB7F89400911D015D
:1002600010911E0120911F013091200186B5A89B9D
:1002700006C08F3F21F00F5F1F4F2F4F3F4F9FBF93
:10028000322F212F102F0027080F111D211D311D86
:1002900043E0000F111F221F331F4A95D1F7B80109
:1002A000C9011F910F910895789484B5826084BD2F
:1002B00084B5816084BD85B5826085BD85B581606A
:1002C00085BDEEE6F0E0808181608083E1E8F0E0CA
:1002D0001082808182608083808181608083E0E8F9
:1002E000F0E0808181608083E1EBF0E080818460D8
:1002F0008083E0EBF0E0808181608083EAE7F0E0DA
:10030000808184608083808182608083808181603D
:1003100080838081806880831092C10008950E944C
:1003200054010E945F00C0E0D0E00E94DC002097F2
:10033000E1F30E940000F9CFEE0FFF1F0590F4914A
:10034000E02D0994FB01DC0101900D920020E1F702
:060350000895F894FFCFB0
:0E03560067657474696D650000000000660044
:00000001FF
